:020000000120DD
:04000B00120061324C
:1000200075A8927589027F017E10758AC0758CC093
:0E003000759000D28012008630901330911629
:10003E00309219308C0201381200A73080F201384C
:10004E00D28CD2900138C28CD2910138C28CD2920D
:10005E0002002009B90206790012006F221200A7D1
:0F006E0022BE000FBF0005C28CC280227E3B1F46
:10007D00120086221E12008622900300EE75F00AF1
:10008D0084F893FBE8C5F093FAEF75F00A84F893C2
:10009D00FDE8C5F093FC1200A7228AB0C2A0D2A041
:1000AD008BB0C2A1D2A18CB0C2A2D2A28DB0C2A37C
:0300BD00D2A322A9
:0A030000C0F9A4B0999282F8809031
:00000001FF
