:0600000002003002008442
:03000B000200A749
:0F0030007581607590FF75A000758000753600B2
:0F003F007530007531007532A5758901758CFC1F
:0F004E00758A18D288D2A8D2A9D2AFC2907EFFED
:10005D007FFFDFFEDEFAD290E536B400121200D437
:0F006D00C290753000753100753601D28C80E974
:0F007C00B402E612010480E1C0E0E536B4010AE7
:10008B00C28CD290753602D0E032C28CD290C2971D
:10009B007FFFDFFED297753600D0E032C0E0C0F0B4
:1000AB00E58A2418F58AE58C34FCF58C0531E531AD
:0F00BB00B400110530E530B4030AE531B4E705B0
:1000CA00C28C753602D0F0D0E03275A0007580007F
:1000DA00D2907E201200F9DEFBE532540F70010443
:0F00EA00FA7DFF7CFF1200F9DCFBDDF7DAF32271
:1000F900E532C333500264B8F53222E5308531F078
:100109007800E5F09464400DF5F0E5309400400581
:0F011900F5300880ED8833E5F075F00A84F53491
:0F01280085F0357BC8E533120160F5A0758001C5
:10013700120165E534120160F5A0758002120165B0
:0F014700E535120160F5A0758004120165DBD764
:0F01560075A0007580007536002290016A932213
:0F0165007F80DFFE223F065B4F666D7D077F6F59
:00000001FF
