:020000000120DD
:04000B001200853228
:0F00200075A8927589027F007E007900758AC0ED
:10002F00758CC0759000D280D2817530641200BB80
:0E003F0075A8927589027900758AC0758CC00B
:0F004D00759000D280D2817530641200BBC280E2
:0E005C00309013309116309219308C02015AF8
:10006A002081ED1200FD015AD28CD290015AC28C25
:10007A00D291015AC28CD29202003FE530700E0929
:0E008A00B9020679001200A6221200FD22091A
:0F009800B9020A79001530E5307002C281220EDC
:1000A700BE3C0D7E000FBF6303C28C221200BB2231
:1000B7001200BB22900300EE75F00A84F893FBE868
:1000C700C5F093FAEF75F00A84F893FDE8C5F0934D
:1000D700FC1200FD22900300EE75F00A84F893FBF2
:1000E700E8C5F093FAEF75F00A84F893FDE8C5F0D8
:1000F70093FC1200FD228AB0C2A0D2A08BB0C2A18D
:0F010700D2A18CB0C2A2D2A28DB0C2A3D2A32229
:0A030000C0F9A4B0999282F8809031
:00000001FF
