:020000000120DD
:04000B0012005E324F
:1000200075A892758902758AC0758CC079007E00AA
:0E0030007F00C280D28CE532543F2414F5319B
:0E003E007530011200A5309214E530B402F8BE
:0F004C003091020144753003C2801200A50144B7
:0F005B00020020053209B90206790012006E2258
:0E006A001200C622E530B40110D53114D28048
:0E0078007530027E007F001200A522B4020443
:0F00860012008E221200A5220EBE640F7E000F04
:10009500BF0A097F097E63753003C2801200A5225D
:1000A500900300EE75F00A84F893FBE8C5F093FA27
:1000B500EF75F00A84F893FDE8C5F093FC1200C6CD
:0F00C500228AB0C2A0D2A08BB0C2A1D2A18CB0AF
:0B00D400C2A2D2A28DB0C2A3D2A32210
:0A030000C0F9A4B0999282F8809031
:00000001FF
